:0300000002091DD5
:0C091D00787FE4F6D8FD7581590209646A
:100A4300173AFC60DAF266B6BEE0FEF600FFFFFF7F
:100A5300FFFFFFEE3E9C7A9E8E10253031323334F9
:0B0A63003536373839414243444546E0
:100ADC00120B3BD2AF120B18120000120A9080F8C6
:090B3B00120AB1120B0A020000BB
:100AB100D2A4D2A5D2A6D2B7E4F5527536217523B8
:080AC10020C201C202C205229D
:0E0B0A00758901758A66758CFCD28CD2A92281
:03000B00020A14D2
:0D0A1400C0E0C0F0C083C082C0D075D0002B
:100A2100120B0A120A6F120B4D1208003000051248
:070A310009A9C20075540081
:0B0A3800D0D0D082D083D0F0D0E032CC
:090B44007539E8753804D200226D
:100A6F0020001A1539E53860037539FF1538E53858
:100A7F0060037539FF7538047539E8D200E4F5372E
:010A8F002244
:10080000E552B41000400302091C900811F8282892
:100810007302084102085402085F02086A0208785D
:1008200002088B0208960208A10208AF0208C20261
:1008300008CD0208D80208E60208F90209040209F4
:100840000FC2A0D2A1D2A2D2A3740A25211209E21A
:1008500075520122A2A592041209EA75520222A23F
:10086000A692041209EA75520322A2B79204120951
:10087000EAE4F58075520422D2A0C2A1D2A2D2A38A
:10088000740A25221209E275520522A2A5920412C9
:1008900009EA75520622A2A692041209EA755207C5
:1008A00022A2B792041209EAE4F58075520822D216
:1008B000A0D2A1C2A2D2A3740A25241209E27552C1
:1008C0000922A2A592041209EA75520A22A2A6924E
:1008D000041209EA75520B22E4F580A2B7920412C1
:1008E00009EA75520C22D2A0D2A1D2A2C2A3740AE4
:1008F00025351209E275520D22A2A592041209EAC9
:1009000075520E22A2A692041209EA75520F22E431
:0D091000F580A2B792041209EAE4F5522224
:0809E200F8E6F580A2A49204DE
:1009EA00300105120AC9801EE536B4210A20041610
:1009FA001536855251800FD5360C200406D201D205
:090A0A00058000753621E4F55762
:010A130022C0
:100AC9002004028007D52307D202C205752320E43A
:020AD900F558CE
:010ADB0022F8
:1009A9003006320521E521643A702A752130052285
:1009B900E522B43A207522310524E524B43A1675A6
:1009C90024300535E535B43A0C7535307524307564
:0809D9002230752130E4F555D0
:0109E10022F3
:0A0B3100300206C201C20280F72262
:0C0B25003001FDE5512425F8E6F55122D1
:100A9000E55124CA600C14600E24027010120AEC96
:100AA000800B120B568006120AFB120B31120B310F
:010AB0002223
:0F0AEC00752130752230752430753530C20622E1
:030B5600C20622B2
:0F0AFB00C20675213075223075243075353022D2
:0D0B1800853A21853A22853A24853A352216
:080B4D00300502B295E4F559F0
:010B5500227D
:10092900020ADCE493A3F8E493A34003F68001F2FE
:1009390008DFF48029E493A3F85407240CC8C333CF
:10094900C4540F4420C8834004F456800146F6DF9E
:10095900E4800B0102040810204080900A43E47EE1
:10096900019360BCA3FF543F30E509541FFEE49393
:10097900A360010ECF54C025E060A840B8E493A35A
:10098900FAE493A3F8E493A3C8C582C8CAC583CA85
:10099900F0A3C8C582C8CAC583CADFE9DEE780BE3D
:010A6E000087
:00000001FF
