:03000000020800F3
:0C080000787FE4F6D8FD758120020847DF
:1009CC000F0CFC60DAF266B6E0FEF6EE3E9C7A9E08
:0109DC008E8C
:1009330012088C750830750930750A30750B30E470
:10094300F51D12090B051DE51DC3940140F41208A2
:03095300D880EC5D
:10088C001209B71209B71209B774031209771209C2
:10089C00B774031209771209B77403120977120996
:1008AC00B774021209771209B77428120977120962
:1008BC00B774011209771209B77406120977120975
:0C08CC00B7740F1209771209B7C280221E
:10090B0074841209771209B7E50B1209771209B72C
:10091B00E50A1209771209B7E5091209771209B727
:08092B00E5081209770209B783
:1009B700E4F51BE4F51C051CE51CB4FAF9051BE579
:0509C7001BB450EF22FB
:1008D8000508E508643A702A7508300509E509B481
:1008E8003A20750930050AE50AB43A16750A300542
:1008F8000BE50BB43A0C750B30750A307509307579
:0309080008302292
:10097700C281C2821209561209DEA2E392E7A2E2FD
:1009870092E6A2E192E5A2E092E41209560209DE9C
:10099700D281C2821209561209DEA2E092E4A2E1D4
:1009A70092E5A2E292E6A2E392E71209560209DE75
:10095600A2E49200A2009284A2E59200A2009285EF
:10096600A2E69200A2009286A2E79200A2009287D7
:01097600225E
:0C09DE0000C28300D2830000C28300220C
:10080C00020933E493A3F8E493A34003F68001F2C6
:10081C0008DFF48029E493A3F85407240CC8C333ED
:10082C00C4540F4420C8834004F456800146F6DFBC
:10083C00E4800B01020408102040809009CCE47E77
:10084C00019360BCA3FF543F30E509541FFEE493B1
:10085C00A360010ECF54C025E060A840B8E493A378
:10086C00FAE493A3F8E493A3C8C582C8CAC583CAA3
:10087C00F0A3C8C582C8CAC583CADFE9DEE780BE5B
:0109DD000019
:00000001FF
