:03000000020800F3
:0C080000787FE4F6D8FD758120020847DF
:10099300070852414E4A45455408114D554E4446A9
:0309A300414E467C
:1008D80012088C748412093E12097EE4F50F74081C
:1008E800250FF8E612095E12097E050FE50FD3946D
:1008F8000640EB74C512093E12097EE4F51074082F
:100908002510F8E612095E12097E0510E510D39449
:050918000740EB80FE2A
:10088C0012097E12097E12097E740312093E1209A6
:10089C007E740312093E12097E740312093E12097A
:1008AC007E740212093E12097E742812093E120946
:1008BC007E740112093E12097E740612093E120959
:0C08CC007E740F12093E12097EC28022C9
:10093E00C281C28212091D1209A7A2E392E7A2E2A6
:10094E0092E6A2E192E5A2E092E412091D0209A745
:10095E00D281C28212091D1209A7A2E092E4A2E17D
:10096E0092E5A2E292E6A2E392E712091D0209A71E
:10097E00E4F51AE4F5190519E519B4FAF9051AE5BD
:05098E001AB450EF2235
:10091D00A2E49200A2009284A2E59200A200928528
:10092D00A2E69200A2009286A2E79200A200928611
:01093D002297
:0C09A70000C28300D2830000C283002243
:10080C000208D8E493A3F8E493A34003F68001F222
:10081C0008DFF48029E493A3F85407240CC8C333ED
:10082C00C4540F4420C8834004F456800146F6DFBC
:10083C00E4800B0102040810204080900993E47EB0
:10084C00019360BCA3FF543F30E509541FFEE493B1
:10085C00A360010ECF54C025E060A840B8E493A378
:10086C00FAE493A3F8E493A3C8C582C8CAC583CAA3
:10087C00F0A3C8C582C8CAC583CADFE9DEE780BE5B
:0109A6000050
:00000001FF
