:03000000020800F3
:0C080000787FE4F6D8FD75812E020847D1
:1008F80020200C00FC006000DA00F2006600B60060
:10090800BE00E000FE000F00EE003E009C007A00F2
:030918009E008EB0
:10093A00E4F508F509F50AF50B752E1C12088C1555
:0D094A002EE52ED3940050F41208C980EC65
:10088C00C2A0D2A1D2A2D2A3E50812091CD2A0C246
:10089C00A1D2A2D2A3E50912091CD2A0D2A1C2A254
:1008AC00D2A3E50A12091CD2A0D2A1D2A2C2A3E5FE
:0D08BC000B25E0240CF808E6F58002092564
:09091C0025E0240CF808E6F58042
:10092500E4F52CE4F52D052DE52DB4FFF9052CE5B1
:050935002CB405EF22C7
:1008C9000508E50864107026F5080509E509B4105E
:1008D9001DE4F509050AE50AB41013E4F50A050B48
:0F08E900E50BB41009E4F50BF50AF509F5082243
:10080C0002093AE493A3F8E493A34003F68001F2BF
:10081C0008DFF48029E493A3F85407240CC8C333ED
:10082C00C4540F4420C8834004F456800146F6DFBC
:10083C00E4800B01020408102040809008F8E47E4C
:10084C00019360BCA3FF543F30E509541FFEE493B1
:10085C00A360010ECF54C025E060A840B8E493A378
:10086C00FAE493A3F8E493A3C8C582C8CAC583CAA3
:10087C00F0A3C8C582C8CAC583CADFE9DEE780BE5B
:01091B0000DB
:00000001FF
